{
  "_format": "hh-sol-artifact-1",
  "contractName": "MockERC20Permit",
  "sourceName": "contracts/MockERC20Permit.sol",
  "abi": [
    {
      "inputs": [
        {
          "internalType": "string",
          "name": "_name",
          "type": "string"
        },
        {
          "internalType": "string",
          "name": "_symbol",
          "type": "string"
        },
        {
          "internalType": "string",
          "name": "_version",
          "type": "string"
        },
        {
          "internalType": "uint8",
          "name": "_decimals",
          "type": "uint8"
        }
      ],
      "stateMutability": "nonpayable",
      "type": "constructor"
    },
    {
      "anonymous": false,
      "inputs": [
        {
          "indexed": true,
          "internalType": "address",
          "name": "owner",
          "type": "address"
        },
        {
          "indexed": true,
          "internalType": "address",
          "name": "spender",
          "type": "address"
        },
        {
          "indexed": false,
          "internalType": "uint256",
          "name": "value",
          "type": "uint256"
        }
      ],
      "name": "Approval",
      "type": "event"
    },
    {
      "anonymous": false,
      "inputs": [
        {
          "indexed": true,
          "internalType": "address",
          "name": "from",
          "type": "address"
        },
        {
          "indexed": true,
          "internalType": "address",
          "name": "to",
          "type": "address"
        },
        {
          "indexed": false,
          "internalType": "uint256",
          "name": "value",
          "type": "uint256"
        }
      ],
      "name": "Transfer",
      "type": "event"
    },
    {
      "inputs": [],
      "name": "DOMAIN_SEPARATOR",
      "outputs": [
        {
          "internalType": "bytes32",
          "name": "",
          "type": "bytes32"
        }
      ],
      "stateMutability": "view",
      "type": "function"
    },
    {
      "inputs": [
        {
          "internalType": "address",
          "name": "",
          "type": "address"
        },
        {
          "internalType": "address",
          "name": "",
          "type": "address"
        }
      ],
      "name": "allowance",
      "outputs": [
        {
          "internalType": "uint256",
          "name": "",
          "type": "uint256"
        }
      ],
      "stateMutability": "view",
      "type": "function"
    },
    {
      "inputs": [
        {
          "internalType": "address",
          "name": "spender",
          "type": "address"
        },
        {
          "internalType": "uint256",
          "name": "amount",
          "type": "uint256"
        }
      ],
      "name": "approve",
      "outputs": [
        {
          "internalType": "bool",
          "name": "",
          "type": "bool"
        }
      ],
      "stateMutability": "nonpayable",
      "type": "function"
    },
    {
      "inputs": [
        {
          "internalType": "address",
          "name": "",
          "type": "address"
        }
      ],
      "name": "balanceOf",
      "outputs": [
        {
          "internalType": "uint256",
          "name": "",
          "type": "uint256"
        }
      ],
      "stateMutability": "view",
      "type": "function"
    },
    {
      "inputs": [],
      "name": "decimals",
      "outputs": [
        {
          "internalType": "uint8",
          "name": "",
          "type": "uint8"
        }
      ],
      "stateMutability": "view",
      "type": "function"
    },
    {
      "inputs": [
        {
          "internalType": "address",
          "name": "to",
          "type": "address"
        },
        {
          "internalType": "uint256",
          "name": "amount",
          "type": "uint256"
        }
      ],
      "name": "mint",
      "outputs": [],
      "stateMutability": "nonpayable",
      "type": "function"
    },
    {
      "inputs": [],
      "name": "name",
      "outputs": [
        {
          "internalType": "string",
          "name": "",
          "type": "string"
        }
      ],
      "stateMutability": "view",
      "type": "function"
    },
    {
      "inputs": [
        {
          "internalType": "address",
          "name": "",
          "type": "address"
        }
      ],
      "name": "nonces",
      "outputs": [
        {
          "internalType": "uint256",
          "name": "",
          "type": "uint256"
        }
      ],
      "stateMutability": "view",
      "type": "function"
    },
    {
      "inputs": [
        {
          "internalType": "address",
          "name": "owner",
          "type": "address"
        },
        {
          "internalType": "address",
          "name": "spender",
          "type": "address"
        },
        {
          "internalType": "uint256",
          "name": "value",
          "type": "uint256"
        },
        {
          "internalType": "uint256",
          "name": "deadline",
          "type": "uint256"
        },
        {
          "internalType": "uint8",
          "name": "v",
          "type": "uint8"
        },
        {
          "internalType": "bytes32",
          "name": "r",
          "type": "bytes32"
        },
        {
          "internalType": "bytes32",
          "name": "s",
          "type": "bytes32"
        }
      ],
      "name": "permit",
      "outputs": [],
      "stateMutability": "nonpayable",
      "type": "function"
    },
    {
      "inputs": [],
      "name": "symbol",
      "outputs": [
        {
          "internalType": "string",
          "name": "",
          "type": "string"
        }
      ],
      "stateMutability": "view",
      "type": "function"
    },
    {
      "inputs": [],
      "name": "totalSupply",
      "outputs": [
        {
          "internalType": "uint256",
          "name": "",
          "type": "uint256"
        }
      ],
      "stateMutability": "view",
      "type": "function"
    },
    {
      "inputs": [
        {
          "internalType": "address",
          "name": "to",
          "type": "address"
        },
        {
          "internalType": "uint256",
          "name": "amount",
          "type": "uint256"
        }
      ],
      "name": "transfer",
      "outputs": [
        {
          "internalType": "bool",
          "name": "",
          "type": "bool"
        }
      ],
      "stateMutability": "nonpayable",
      "type": "function"
    },
    {
      "inputs": [
        {
          "internalType": "address",
          "name": "from",
          "type": "address"
        },
        {
          "internalType": "address",
          "name": "to",
          "type": "address"
        },
        {
          "internalType": "uint256",
          "name": "amount",
          "type": "uint256"
        }
      ],
      "name": "transferFrom",
      "outputs": [
        {
          "internalType": "bool",
          "name": "",
          "type": "bool"
        }
      ],
      "stateMutability": "nonpayable",
      "type": "function"
    },
    {
      "inputs": [],
      "name": "version",
      "outputs": [
        {
          "internalType": "string",
          "name": "",
          "type": "string"
        }
      ],
      "stateMutability": "view",
      "type": "function"
    }
  ],
  "bytecode": "0x60a06040523480156200001157600080fd5b5060405162000f1f38038062000f1f8339810160408190526200003491620001b2565b6000620000428582620002ec565b506001620000518482620002ec565b506002620000608382620002ec565b506003805460ff191660ff83161790558351602080860191909120835184830120604080517f8b73c3c69bb8fe3d512ecc4cf759cc79239f7b179b0ffacaa9a75d522b39400f9481019490945283019190915260608201524660808201523060a082015260c00160408051601f19818403018152919052805160209091012060805250620003b892505050565b634e487b7160e01b600052604160045260246000fd5b600082601f8301126200011557600080fd5b81516001600160401b0380821115620001325762000132620000ed565b604051601f8301601f19908116603f011681019082821181831017156200015d576200015d620000ed565b816040528381526020925086838588010111156200017a57600080fd5b600091505b838210156200019e57858201830151818301840152908201906200017f565b600093810190920192909252949350505050565b60008060008060808587031215620001c957600080fd5b84516001600160401b0380821115620001e157600080fd5b620001ef8883890162000103565b955060208701519150808211156200020657600080fd5b620002148883890162000103565b945060408701519150808211156200022b57600080fd5b506200023a8782880162000103565b925050606085015160ff811681146200025257600080fd5b939692955090935050565b600181811c908216806200027257607f821691505b6020821081036200029357634e487b7160e01b600052602260045260246000fd5b50919050565b601f821115620002e757600081815260208120601f850160051c81016020861015620002c25750805b601f850160051c820191505b81811015620002e357828155600101620002ce565b5050505b505050565b81516001600160401b03811115620003085762000308620000ed565b62000320816200031984546200025d565b8462000299565b602080601f8311600181146200035857600084156200033f5750858301515b600019600386901b1c1916600185901b178555620002e3565b600085815260208120601f198616915b82811015620003895788860151825594840194600190910190840162000368565b5085821015620003a85787850151600019600388901b60f8161c191681555b5050505050600190811b01905550565b608051610b44620003db6000396000818161017e01526107630152610b446000f3fe608060405234801561001057600080fd5b50600436106100ea5760003560e01c806354fd4d501161008c57806395d89b411161006657806395d89b41146101fd578063a9059cbb14610205578063d505accf14610218578063dd62ed3e1461022b57600080fd5b806354fd4d50146101b557806370a08231146101bd5780637ecebe00146101dd57600080fd5b806323b872dd116100c857806323b872dd14610147578063313ce5671461015a5780633644e5151461017957806340c10f19146101a057600080fd5b806306fdde03146100ef578063095ea7b31461010d57806318160ddd14610130575b600080fd5b6100f7610256565b6040516101049190610900565b60405180910390f35b61012061011b36600461096a565b6102e4565b6040519015158152602001610104565b61013960045481565b604051908152602001610104565b610120610155366004610994565b610351565b6003546101679060ff1681565b60405160ff9091168152602001610104565b6101397f000000000000000000000000000000000000000000000000000000000000000081565b6101b36101ae36600461096a565b61050c565b005b6100f7610597565b6101396101cb3660046109d0565b60056020526000908152604090205481565b6101396101eb3660046109d0565b60076020526000908152604090205481565b6100f76105a4565b61012061021336600461096a565b6105b1565b6101b36102263660046109f2565b610695565b610139610239366004610a65565b600660209081526000928352604080842090915290825290205481565b6000805461026390610a98565b80601f016020809104026020016040519081016040528092919081815260200182805461028f90610a98565b80156102dc5780601f106102b1576101008083540402835291602001916102dc565b820191906000526020600020905b8154815290600101906020018083116102bf57829003601f168201915b505050505081565b3360008181526006602090815260408083206001600160a01b038716808552925280832085905551919290917f8c5be1e5ebec7d5bd14f71427d1e84f3dd0314c0f7b2291e5b200ac8c7c3b9259061033f9086815260200190565b60405180910390a35060015b92915050565b6001600160a01b0383166000908152600560205260408120548211156103b55760405162461bcd60e51b8152602060048201526014602482015273496e73756666696369656e742062616c616e636560601b60448201526064015b60405180910390fd5b6001600160a01b03841660009081526006602090815260408083203384529091529020548211156104215760405162461bcd60e51b8152602060048201526016602482015275496e73756666696369656e7420616c6c6f77616e636560501b60448201526064016103ac565b6001600160a01b038416600090815260066020908152604080832033845290915281208054849290610454908490610ae8565b90915550506001600160a01b03841660009081526005602052604081208054849290610481908490610ae8565b90915550506001600160a01b038316600090815260056020526040812080548492906104ae908490610afb565b92505081905550826001600160a01b0316846001600160a01b03167fddf252ad1be2c89b69c2b068fc378daa952ba7f163c4a11628f55a4df523b3ef846040516104fa91815260200190565b60405180910390a35060019392505050565b6001600160a01b03821660009081526005602052604081208054839290610534908490610afb565b92505081905550806004600082825461054d9190610afb565b90915550506040518181526001600160a01b038316906000907fddf252ad1be2c89b69c2b068fc378daa952ba7f163c4a11628f55a4df523b3ef9060200160405180910390a35050565b6002805461026390610a98565b6001805461026390610a98565b336000908152600560205260408120548211156106075760405162461bcd60e51b8152602060048201526014602482015273496e73756666696369656e742062616c616e636560601b60448201526064016103ac565b3360009081526005602052604081208054849290610626908490610ae8565b90915550506001600160a01b03831660009081526005602052604081208054849290610653908490610afb565b90915550506040518281526001600160a01b0384169033907fddf252ad1be2c89b69c2b068fc378daa952ba7f163c4a11628f55a4df523b3ef9060200161033f565b428410156106d65760405162461bcd60e51b815260206004820152600e60248201526d14195c9b5a5d08195e1c1a5c995960921b60448201526064016103ac565b6001600160a01b0387811660008181526007602090815260408083205481517f6e71edae12b1b97f4d1f60370fef10105fa2faae0126114a169c64845d6126c98185015280830195909552948b166060850152608084018a905260a0840185905260c08085018a90528151808603909101815260e08501825280519083012061190160f01b6101008601527f000000000000000000000000000000000000000000000000000000000000000061010286015261012280860182905282518087039091018152610142860180845281519185019190912090859052610162860180845281905260ff8a166101828701526101a286018990526101c28601889052915190949193926001926101e280820193601f1981019281900390910190855afa158015610807573d6000803e3d6000fd5b5050604051601f1901519150506001600160a01b0381161580159061083d57508a6001600160a01b0316816001600160a01b0316145b61087d5760405162461bcd60e51b8152602060048201526011602482015270496e76616c6964207369676e617475726560781b60448201526064016103ac565b610888846001610afb565b6001600160a01b038c811660008181526007602090815260408083209590955560068152848220938f16808352938152908490208d905592518c8152919290917f8c5be1e5ebec7d5bd14f71427d1e84f3dd0314c0f7b2291e5b200ac8c7c3b925910160405180910390a35050505050505050505050565b600060208083528351808285015260005b8181101561092d57858101830151858201604001528201610911565b506000604082860101526040601f19601f8301168501019250505092915050565b80356001600160a01b038116811461096557600080fd5b919050565b6000806040838503121561097d57600080fd5b6109868361094e565b946020939093013593505050565b6000806000606084860312156109a957600080fd5b6109b28461094e565b92506109c06020850161094e565b9150604084013590509250925092565b6000602082840312156109e257600080fd5b6109eb8261094e565b9392505050565b600080600080600080600060e0888a031215610a0d57600080fd5b610a168861094e565b9650610a246020890161094e565b95506040880135945060608801359350608088013560ff81168114610a4857600080fd5b9699959850939692959460a0840135945060c09093013592915050565b60008060408385031215610a7857600080fd5b610a818361094e565b9150610a8f6020840161094e565b90509250929050565b600181811c90821680610aac57607f821691505b602082108103610acc57634e487b7160e01b600052602260045260246000fd5b50919050565b634e487b7160e01b600052601160045260246000fd5b8181038181111561034b5761034b610ad2565b8082018082111561034b5761034b610ad256fea26469706673582212203e5aaca1fae48ea2ea3d7b7bdd03708a1aec319bf5da4c279519dc01c60d193b64736f6c63430008140033",
  "linkReferences": {},
  "deployedLinkReferences": {}
}