{
  "_format": "hh-sol-artifact-1",
  "contractName": "CryptoPaySubscription",
  "sourceName": "contracts/CryptoPaySubscription.sol",
  "abi": [
    {
      "inputs": [],
      "stateMutability": "nonpayable",
      "type": "constructor"
    },
    {
      "anonymous": false,
      "inputs": [
        {
          "indexed": true,
          "internalType": "uint256",
          "name": "subscriptionId",
          "type": "uint256"
        },
        {
          "indexed": true,
          "internalType": "address",
          "name": "sender",
          "type": "address"
        },
        {
          "indexed": true,
          "internalType": "address",
          "name": "receiver",
          "type": "address"
        },
        {
          "indexed": false,
          "internalType": "uint256",
          "name": "amount",
          "type": "uint256"
        },
        {
          "indexed": false,
          "internalType": "uint256",
          "name": "timestamp",
          "type": "uint256"
        }
      ],
      "name": "PaymentExecuted",
      "type": "event"
    },
    {
      "anonymous": false,
      "inputs": [
        {
          "indexed": true,
          "internalType": "uint256",
          "name": "subscriptionId",
          "type": "uint256"
        },
        {
          "indexed": true,
          "internalType": "address",
          "name": "oldReceiver",
          "type": "address"
        },
        {
          "indexed": true,
          "internalType": "address",
          "name": "newReceiver",
          "type": "address"
        }
      ],
      "name": "ReceiverUpdated",
      "type": "event"
    },
    {
      "anonymous": false,
      "inputs": [
        {
          "indexed": true,
          "internalType": "uint256",
          "name": "subscriptionId",
          "type": "uint256"
        }
      ],
      "name": "SubscriptionCancelled",
      "type": "event"
    },
    {
      "anonymous": false,
      "inputs": [
        {
          "indexed": true,
          "internalType": "uint256",
          "name": "subscriptionId",
          "type": "uint256"
        },
        {
          "indexed": true,
          "internalType": "address",
          "name": "sender",
          "type": "address"
        },
        {
          "indexed": true,
          "internalType": "address",
          "name": "receiver",
          "type": "address"
        },
        {
          "indexed": false,
          "internalType": "address",
          "name": "token",
          "type": "address"
        },
        {
          "indexed": false,
          "internalType": "uint256",
          "name": "amount",
          "type": "uint256"
        },
        {
          "indexed": false,
          "internalType": "uint256",
          "name": "interval",
          "type": "uint256"
        }
      ],
      "name": "SubscriptionCreated",
      "type": "event"
    },
    {
      "anonymous": false,
      "inputs": [
        {
          "indexed": true,
          "internalType": "uint256",
          "name": "subscriptionId",
          "type": "uint256"
        },
        {
          "indexed": false,
          "internalType": "uint256",
          "name": "newAmount",
          "type": "uint256"
        },
        {
          "indexed": false,
          "internalType": "uint256",
          "name": "newInterval",
          "type": "uint256"
        }
      ],
      "name": "SubscriptionUpdated",
      "type": "event"
    },
    {
      "inputs": [
        {
          "internalType": "address",
          "name": "_receiver",
          "type": "address"
        },
        {
          "internalType": "address",
          "name": "_token",
          "type": "address"
        },
        {
          "internalType": "uint256",
          "name": "_initialAmount",
          "type": "uint256"
        },
        {
          "internalType": "uint256",
          "name": "_recurringAmount",
          "type": "uint256"
        },
        {
          "internalType": "uint256",
          "name": "_interval",
          "type": "uint256"
        }
      ],
      "name": "activate",
      "outputs": [
        {
          "internalType": "uint256",
          "name": "",
          "type": "uint256"
        }
      ],
      "stateMutability": "nonpayable",
      "type": "function"
    },
    {
      "inputs": [
        {
          "internalType": "address",
          "name": "_receiver",
          "type": "address"
        },
        {
          "internalType": "address",
          "name": "_token",
          "type": "address"
        },
        {
          "internalType": "uint256",
          "name": "_initialAmount",
          "type": "uint256"
        },
        {
          "internalType": "uint256",
          "name": "_recurringAmount",
          "type": "uint256"
        },
        {
          "internalType": "uint256",
          "name": "_interval",
          "type": "uint256"
        },
        {
          "internalType": "uint256",
          "name": "_permitValue",
          "type": "uint256"
        },
        {
          "internalType": "uint256",
          "name": "_permitDeadline",
          "type": "uint256"
        },
        {
          "internalType": "uint8",
          "name": "v",
          "type": "uint8"
        },
        {
          "internalType": "bytes32",
          "name": "r",
          "type": "bytes32"
        },
        {
          "internalType": "bytes32",
          "name": "s",
          "type": "bytes32"
        }
      ],
      "name": "activateWithPermit",
      "outputs": [
        {
          "internalType": "uint256",
          "name": "",
          "type": "uint256"
        }
      ],
      "stateMutability": "nonpayable",
      "type": "function"
    },
    {
      "inputs": [
        {
          "internalType": "uint256",
          "name": "_subscriptionId",
          "type": "uint256"
        }
      ],
      "name": "cancelSubscription",
      "outputs": [],
      "stateMutability": "nonpayable",
      "type": "function"
    },
    {
      "inputs": [
        {
          "internalType": "address",
          "name": "_receiver",
          "type": "address"
        },
        {
          "internalType": "address",
          "name": "_token",
          "type": "address"
        },
        {
          "internalType": "uint256",
          "name": "_amount",
          "type": "uint256"
        },
        {
          "internalType": "uint256",
          "name": "_interval",
          "type": "uint256"
        }
      ],
      "name": "createSubscription",
      "outputs": [
        {
          "internalType": "uint256",
          "name": "",
          "type": "uint256"
        }
      ],
      "stateMutability": "nonpayable",
      "type": "function"
    },
    {
      "inputs": [
        {
          "internalType": "uint256",
          "name": "_subscriptionId",
          "type": "uint256"
        }
      ],
      "name": "executeSubscription",
      "outputs": [],
      "stateMutability": "nonpayable",
      "type": "function"
    },
    {
      "inputs": [
        {
          "internalType": "uint256",
          "name": "_subscriptionId",
          "type": "uint256"
        }
      ],
      "name": "getSubscription",
      "outputs": [
        {
          "components": [
            {
              "internalType": "address",
              "name": "sender",
              "type": "address"
            },
            {
              "internalType": "address",
              "name": "receiver",
              "type": "address"
            },
            {
              "internalType": "address",
              "name": "token",
              "type": "address"
            },
            {
              "internalType": "uint256",
              "name": "amount",
              "type": "uint256"
            },
            {
              "internalType": "uint256",
              "name": "interval",
              "type": "uint256"
            },
            {
              "internalType": "uint256",
              "name": "nextPaymentTime",
              "type": "uint256"
            },
            {
              "internalType": "bool",
              "name": "active",
              "type": "bool"
            },
            {
              "internalType": "uint256",
              "name": "totalPaid",
              "type": "uint256"
            },
            {
              "internalType": "uint256",
              "name": "paymentCount",
              "type": "uint256"
            }
          ],
          "internalType": "struct CryptoPaySubscription.Subscription",
          "name": "",
          "type": "tuple"
        }
      ],
      "stateMutability": "view",
      "type": "function"
    },
    {
      "inputs": [
        {
          "internalType": "uint256",
          "name": "_subscriptionId",
          "type": "uint256"
        }
      ],
      "name": "hasEnoughAllowance",
      "outputs": [
        {
          "internalType": "bool",
          "name": "",
          "type": "bool"
        }
      ],
      "stateMutability": "view",
      "type": "function"
    },
    {
      "inputs": [
        {
          "internalType": "uint256",
          "name": "_subscriptionId",
          "type": "uint256"
        }
      ],
      "name": "isDue",
      "outputs": [
        {
          "internalType": "bool",
          "name": "",
          "type": "bool"
        }
      ],
      "stateMutability": "view",
      "type": "function"
    },
    {
      "inputs": [],
      "name": "nextSubscriptionId",
      "outputs": [
        {
          "internalType": "uint256",
          "name": "",
          "type": "uint256"
        }
      ],
      "stateMutability": "view",
      "type": "function"
    },
    {
      "inputs": [],
      "name": "owner",
      "outputs": [
        {
          "internalType": "address",
          "name": "",
          "type": "address"
        }
      ],
      "stateMutability": "view",
      "type": "function"
    },
    {
      "inputs": [
        {
          "internalType": "uint256",
          "name": "",
          "type": "uint256"
        }
      ],
      "name": "subscriptions",
      "outputs": [
        {
          "internalType": "address",
          "name": "sender",
          "type": "address"
        },
        {
          "internalType": "address",
          "name": "receiver",
          "type": "address"
        },
        {
          "internalType": "address",
          "name": "token",
          "type": "address"
        },
        {
          "internalType": "uint256",
          "name": "amount",
          "type": "uint256"
        },
        {
          "internalType": "uint256",
          "name": "interval",
          "type": "uint256"
        },
        {
          "internalType": "uint256",
          "name": "nextPaymentTime",
          "type": "uint256"
        },
        {
          "internalType": "bool",
          "name": "active",
          "type": "bool"
        },
        {
          "internalType": "uint256",
          "name": "totalPaid",
          "type": "uint256"
        },
        {
          "internalType": "uint256",
          "name": "paymentCount",
          "type": "uint256"
        }
      ],
      "stateMutability": "view",
      "type": "function"
    },
    {
      "inputs": [
        {
          "internalType": "uint256",
          "name": "_subscriptionId",
          "type": "uint256"
        },
        {
          "internalType": "address",
          "name": "_newReceiver",
          "type": "address"
        }
      ],
      "name": "updateReceiver",
      "outputs": [],
      "stateMutability": "nonpayable",
      "type": "function"
    },
    {
      "inputs": [
        {
          "internalType": "uint256",
          "name": "_subscriptionId",
          "type": "uint256"
        },
        {
          "internalType": "uint256",
          "name": "_newAmount",
          "type": "uint256"
        },
        {
          "internalType": "uint256",
          "name": "_newInterval",
          "type": "uint256"
        }
      ],
      "name": "updateSubscription",
      "outputs": [],
      "stateMutability": "nonpayable",
      "type": "function"
    }
  ],
  "bytecode": "0x608060405234801561001057600080fd5b50600280546001600160a01b031916331790556118ef806100326000396000f3fe608060405234801561001057600080fd5b50600436106100cf5760003560e01c80635583a9301161008c578063da58935f11610066578063da58935f1461026b578063dc311dd314610274578063e890365614610294578063fefe172a146102a757600080fd5b80635583a9301461021a5780638da5cb5b1461022d5780638de8b9001461025857600080fd5b80630b73a18f146100d457806321235083146100fa578063222bf4281461010f5780632d5bbf60146101225780634c6ec871146101e45780634e5a1e2a146101f7575b600080fd5b6100e76100e2366004611470565b6102ba565b6040519081526020015b60405180910390f35b61010d6101083660046114bd565b610327565b005b6100e761011d3660046114d6565b610419565b61018d6101303660046114bd565b6000602081905290815260409020805460018201546002830154600384015460048501546005860154600687015460078801546008909801546001600160a01b0397881698968816979095169593949293919260ff909116919089565b604080516001600160a01b039a8b168152988a1660208a015296909816958701959095526060860193909352608085019190915260a0840152151560c083015260e0820152610100810191909152610120016100f1565b61010d6101f2366004611569565b610506565b61020a6102053660046114bd565b61064c565b60405190151581526020016100f1565b61020a6102283660046114bd565b6106f7565b600254610240906001600160a01b031681565b6040516001600160a01b0390911681526020016100f1565b6100e7610266366004611595565b610724565b6100e760015481565b6102876102823660046114bd565b610a49565b6040516100f191906115d7565b61010d6102a23660046114bd565b610b41565b61010d6102b5366004611654565b610e70565b600254600090600160a01b900460ff16156102f05760405162461bcd60e51b81526004016102e790611680565b60405180910390fd5b6002805460ff60a01b1916600160a01b1790556103108686868686610f99565b6002805460ff60a01b191690559695505050505050565b600081815260208190526040902080546001600160a01b0316331480610359575060018101546001600160a01b031633145b6103965760405162461bcd60e51b815260206004820152600e60248201526d139bdd08185d5d1a1bdc9a5e995960921b60448201526064016102e7565b600681015460ff166103de5760405162461bcd60e51b8152602060048201526011602482015270105b1c9958591e4818d85b98d95b1b1959607a1b60448201526064016102e7565b60068101805460ff1916905560405182907fbd2bcea75d16a85f005cd83447e0de57341bf926fe7419e6d553663e91ab4da790600090a25050565b600254600090600160a01b900460ff16156104465760405162461bcd60e51b81526004016102e790611680565b6002805460ff60a01b1916600160a01b17905560405163d505accf60e01b8152336004820152306024820152604481018790526064810186905260ff8516608482015260a4810184905260c481018390526001600160a01b038b169063d505accf9060e401600060405180830381600087803b1580156104c557600080fd5b505af11580156104d9573d6000803e3d6000fd5b505050506104ea8b8b8b8b8b610f99565b6002805460ff60a01b191690559b9a5050505050505050505050565b6002546001600160a01b0316331461054c5760405162461bcd60e51b81526020600482015260096024820152682737ba1037bbb732b960b91b60448201526064016102e7565b6000828152602081905260409020600681015460ff1661057e5760405162461bcd60e51b81526004016102e7906116a4565b6001600160a01b0382166105a45760405162461bcd60e51b81526004016102e7906116db565b60018101546001600160a01b03908116908316036105f45760405162461bcd60e51b815260206004820152600d60248201526c29b0b6b2903932b1b2b4bb32b960991b60448201526064016102e7565b6001810180546001600160a01b038481166001600160a01b03198316811790935560405191169190829086907fa61d7b1eae34e89744b59e11899c644c1829b7dbac39f0dd73c510e16c77f3dd90600090a450505050565b6000818152602081905260408120600681015460ff1661066f5750600092915050565b600281015460038201548254604051636eb1769f60e11b81526001600160a01b039182166004820152306024820152921691829063dd62ed3e90604401602060405180830381865afa1580156106c9573d6000803e3d6000fd5b505050506040513d601f19601f820116820180604052508101906106ed9190611705565b1015949350505050565b6000818152602081905260408120600681015460ff16801561071d575080600501544210155b9392505050565b600254600090600160a01b900460ff16156107515760405162461bcd60e51b81526004016102e790611680565b6002805460ff60a01b1916600160a01b1790556001600160a01b03851661078a5760405162461bcd60e51b81526004016102e7906116db565b6001600160a01b0384166107d05760405162461bcd60e51b815260206004820152600d60248201526c24b73b30b634b2103a37b5b2b760991b60448201526064016102e7565b600083116107f05760405162461bcd60e51b81526004016102e79061171e565b600082116108105760405162461bcd60e51b81526004016102e79061174a565b603c8210156108315760405162461bcd60e51b81526004016102e790611778565b604051636eb1769f60e11b815233600482015230602482015284906000906001600160a01b0383169063dd62ed3e90604401602060405180830381865afa158015610880573d6000803e3d6000fd5b505050506040513d601f19601f820116820180604052508101906108a49190611705565b9050848110156108c65760405162461bcd60e51b81526004016102e7906117a4565b60018054600091826108d7836117ea565b919050559050604051806101200160405280336001600160a01b03168152602001896001600160a01b03168152602001886001600160a01b03168152602001878152602001868152602001864261092e9190611803565b81526001602080830182905260006040808501829052606094850182905286825281835290819020855181546001600160a01b03199081166001600160a01b0392831617835587850151958301805482169683169690961790955586830151600283018054909616908216179094558585015160038201556080860151600482015560a0860151600582015560c086015160068201805460ff191691151591909117905560e086015160078201556101009095015160089095019490945583518b831681529081018a90529283018890528a1691339184917f818ee5f93d6e5cd1e7c2a990db4ebb6cec0d4fb9f9a3b44720eb1ee90a10ad54910160405180910390a46002805460ff60a01b19169055979650505050505050565b610ab560405180610120016040528060006001600160a01b0316815260200160006001600160a01b0316815260200160006001600160a01b0316815260200160008152602001600081526020016000815260200160001515815260200160008152602001600081525090565b506000908152602081815260409182902082516101208101845281546001600160a01b03908116825260018301548116938201939093526002820154909216928201929092526003820154606082015260048201546080820152600582015460a0820152600682015460ff16151560c0820152600782015460e082015260089091015461010082015290565b600254600160a01b900460ff1615610b6b5760405162461bcd60e51b81526004016102e790611680565b6002805460ff60a01b1916600160a01b1790556000818152602081905260409020600681015460ff16610bb05760405162461bcd60e51b81526004016102e7906116a4565b8060050154421015610bf05760405162461bcd60e51b8152602060048201526009602482015268546f6f206561726c7960b81b60448201526064016102e7565b60028101548154604051636eb1769f60e11b81526001600160a01b039182166004820152306024820152911690600090829063dd62ed3e90604401602060405180830381865afa158015610c48573d6000803e3d6000fd5b505050506040513d601f19601f82011682018060405250810190610c6c9190611705565b90508260030154811015610c925760405162461bcd60e51b81526004016102e7906117a4565b600383015483546040516370a0823160e01b81526001600160a01b039182166004820152908416906370a0823190602401602060405180830381865afa158015610ce0573d6000803e3d6000fd5b505050506040513d601f19601f82011682018060405250810190610d049190611705565b1015610d495760405162461bcd60e51b8152602060048201526014602482015273496e73756666696369656e742062616c616e636560601b60448201526064016102e7565b6000836005015442610d5b919061181c565b90506000846004015482610d6f919061182f565b610d7a906001611803565b9050846004015481610d8c9190611851565b8560050154610d9b9190611803565b60058601556003850154600786018054600090610db9908490611803565b925050819055506001856008016000828254610dd59190611803565b90915550506002850154855460018701546003880154610e05936001600160a01b0390811693811692169061133e565b600185015485546003870154604080519182524260208301526001600160a01b03938416939092169189917f64dcc45c8bf26314103700cb3e251d47cdee628e30b916bbe4ad32ab67350bc6910160405180910390a450506002805460ff60a01b1916905550505050565b600083815260208190526040902080546001600160a01b03163314610ec55760405162461bcd60e51b815260206004820152600b60248201526a27b7363c9039b2b73232b960a91b60448201526064016102e7565b600681015460ff16610ee95760405162461bcd60e51b81526004016102e7906116a4565b60008311610f095760405162461bcd60e51b81526004016102e79061171e565b60008211610f295760405162461bcd60e51b81526004016102e79061174a565b603c821015610f4a5760405162461bcd60e51b81526004016102e790611778565b6003810183905560048101829055604080518481526020810184905285917f6f6a7fe5088cede257ecba456c6bd063ac27a8f7ed056bdc49ea01c8d2d2e534910160405180910390a250505050565b60006001600160a01b038616610fc15760405162461bcd60e51b81526004016102e7906116db565b6001600160a01b0385166110075760405162461bcd60e51b815260206004820152600d60248201526c24b73b30b634b2103a37b5b2b760991b60448201526064016102e7565b600083116110275760405162461bcd60e51b81526004016102e79061171e565b600082116110475760405162461bcd60e51b81526004016102e79061174a565b603c8210156110685760405162461bcd60e51b81526004016102e790611778565b604051636eb1769f60e11b815233600482015230602482015285906000906001600160a01b0383169063dd62ed3e90604401602060405180830381865afa1580156110b7573d6000803e3d6000fd5b505050506040513d601f19601f820116820180604052508101906110db9190611705565b90506110e78587611803565b8110156111065760405162461bcd60e51b81526004016102e7906117a4565b6040516370a0823160e01b815233600482015286906001600160a01b038416906370a0823190602401602060405180830381865afa15801561114c573d6000803e3d6000fd5b505050506040513d601f19601f820116820180604052508101906111709190611705565b10156111b55760405162461bcd60e51b8152602060048201526014602482015273496e73756666696369656e742062616c616e636560601b60448201526064016102e7565b85156111c7576111c787338a8961133e565b60018054600091826111d8836117ea565b919050559050604051806101200160405280336001600160a01b031681526020018a6001600160a01b03168152602001896001600160a01b03168152602001878152602001868152602001864261122f9190611803565b81526001602080830182905260006040808501829052606094850182905286825281835290819020855181546001600160a01b03199081166001600160a01b0392831617835587850151958301805482169683169690961790955586830151600283018054909616908216179094558585015160038201556080860151600482015560a0860151600582015560c086015160068201805460ff191691151591909117905560e086015160078201556101009095015160089095019490945583518c831681529081018a90529283018890528b1691339184917f818ee5f93d6e5cd1e7c2a990db4ebb6cec0d4fb9f9a3b44720eb1ee90a10ad54910160405180910390a498975050505050505050565b604080516001600160a01b0385811660248301528481166044830152606480830185905283518084039091018152608490920183526020820180516001600160e01b03166323b872dd60e01b17905291516000928392908816916113a29190611868565b6000604051808303816000865af19150503d80600081146113df576040519150601f19603f3d011682016040523d82523d6000602084013e6113e4565b606091505b509150915081801561140e57508051158061140e57508080602001905181019061140e9190611897565b61144c5760405162461bcd60e51b815260206004820152600f60248201526e151c985b9cd9995c8819985a5b1959608a1b60448201526064016102e7565b505050505050565b80356001600160a01b038116811461146b57600080fd5b919050565b600080600080600060a0868803121561148857600080fd5b61149186611454565b945061149f60208701611454565b94979496505050506040830135926060810135926080909101359150565b6000602082840312156114cf57600080fd5b5035919050565b6000806000806000806000806000806101408b8d0312156114f657600080fd5b6114ff8b611454565b995061150d60208c01611454565b985060408b0135975060608b0135965060808b0135955060a08b0135945060c08b0135935060e08b013560ff8116811461154657600080fd5b809350506101008b013591506101208b013590509295989b9194979a5092959850565b6000806040838503121561157c57600080fd5b8235915061158c60208401611454565b90509250929050565b600080600080608085870312156115ab57600080fd5b6115b485611454565b93506115c260208601611454565b93969395505050506040820135916060013590565b81516001600160a01b0390811682526020808401518216908301526040808401519182169083015261012082019050606083015160608301526080830151608083015260a083015160a083015260c083015161163760c084018215159052565b5060e083015160e083015261010080840151818401525092915050565b60008060006060848603121561166957600080fd5b505081359360208301359350604090920135919050565b6020808252600a90820152695265656e7472616e637960b01b604082015260600190565b60208082526017908201527f537562736372697074696f6e206e6f7420616374697665000000000000000000604082015260600190565b60208082526010908201526f24b73b30b634b2103932b1b2b4bb32b960811b604082015260600190565b60006020828403121561171757600080fd5b5051919050565b6020808252601290820152710416d6f756e74206d757374206265203e20360741b604082015260600190565b6020808252601490820152730496e74657276616c206d757374206265203e20360641b604082015260600190565b602080825260129082015271125b9d195c9d985b081d1bdbc81cdb585b1b60721b604082015260600190565b602080825260169082015275496e73756666696369656e7420616c6c6f77616e636560501b604082015260600190565b634e487b7160e01b600052601160045260246000fd5b6000600182016117fc576117fc6117d4565b5060010190565b80820180821115611816576118166117d4565b92915050565b81810381811115611816576118166117d4565b60008261184c57634e487b7160e01b600052601260045260246000fd5b500490565b8082028115828204841417611816576118166117d4565b6000825160005b81811015611889576020818601810151858301520161186f565b506000920191825250919050565b6000602082840312156118a957600080fd5b8151801515811461071d57600080fdfea2646970667358221220db9c0e51f2e72c5b7d64a47d2219aea9684d2805d73efa77b7e1c140fa09597f64736f6c63430008140033",
  "linkReferences": {},
  "deployedLinkReferences": {}
}