{
  "_format": "hh-sol-artifact-1",
  "contractName": "MockERC20",
  "sourceName": "contracts/MockERC20.sol",
  "abi": [
    {
      "inputs": [
        {
          "internalType": "string",
          "name": "_name",
          "type": "string"
        },
        {
          "internalType": "string",
          "name": "_symbol",
          "type": "string"
        },
        {
          "internalType": "uint8",
          "name": "_decimals",
          "type": "uint8"
        }
      ],
      "stateMutability": "nonpayable",
      "type": "constructor"
    },
    {
      "anonymous": false,
      "inputs": [
        {
          "indexed": true,
          "internalType": "address",
          "name": "owner",
          "type": "address"
        },
        {
          "indexed": true,
          "internalType": "address",
          "name": "spender",
          "type": "address"
        },
        {
          "indexed": false,
          "internalType": "uint256",
          "name": "value",
          "type": "uint256"
        }
      ],
      "name": "Approval",
      "type": "event"
    },
    {
      "anonymous": false,
      "inputs": [
        {
          "indexed": true,
          "internalType": "address",
          "name": "from",
          "type": "address"
        },
        {
          "indexed": true,
          "internalType": "address",
          "name": "to",
          "type": "address"
        },
        {
          "indexed": false,
          "internalType": "uint256",
          "name": "value",
          "type": "uint256"
        }
      ],
      "name": "Transfer",
      "type": "event"
    },
    {
      "inputs": [
        {
          "internalType": "address",
          "name": "",
          "type": "address"
        },
        {
          "internalType": "address",
          "name": "",
          "type": "address"
        }
      ],
      "name": "allowance",
      "outputs": [
        {
          "internalType": "uint256",
          "name": "",
          "type": "uint256"
        }
      ],
      "stateMutability": "view",
      "type": "function"
    },
    {
      "inputs": [
        {
          "internalType": "address",
          "name": "spender",
          "type": "address"
        },
        {
          "internalType": "uint256",
          "name": "amount",
          "type": "uint256"
        }
      ],
      "name": "approve",
      "outputs": [
        {
          "internalType": "bool",
          "name": "",
          "type": "bool"
        }
      ],
      "stateMutability": "nonpayable",
      "type": "function"
    },
    {
      "inputs": [
        {
          "internalType": "address",
          "name": "",
          "type": "address"
        }
      ],
      "name": "balanceOf",
      "outputs": [
        {
          "internalType": "uint256",
          "name": "",
          "type": "uint256"
        }
      ],
      "stateMutability": "view",
      "type": "function"
    },
    {
      "inputs": [],
      "name": "decimals",
      "outputs": [
        {
          "internalType": "uint8",
          "name": "",
          "type": "uint8"
        }
      ],
      "stateMutability": "view",
      "type": "function"
    },
    {
      "inputs": [
        {
          "internalType": "address",
          "name": "to",
          "type": "address"
        },
        {
          "internalType": "uint256",
          "name": "amount",
          "type": "uint256"
        }
      ],
      "name": "mint",
      "outputs": [],
      "stateMutability": "nonpayable",
      "type": "function"
    },
    {
      "inputs": [],
      "name": "name",
      "outputs": [
        {
          "internalType": "string",
          "name": "",
          "type": "string"
        }
      ],
      "stateMutability": "view",
      "type": "function"
    },
    {
      "inputs": [],
      "name": "symbol",
      "outputs": [
        {
          "internalType": "string",
          "name": "",
          "type": "string"
        }
      ],
      "stateMutability": "view",
      "type": "function"
    },
    {
      "inputs": [],
      "name": "totalSupply",
      "outputs": [
        {
          "internalType": "uint256",
          "name": "",
          "type": "uint256"
        }
      ],
      "stateMutability": "view",
      "type": "function"
    },
    {
      "inputs": [
        {
          "internalType": "address",
          "name": "to",
          "type": "address"
        },
        {
          "internalType": "uint256",
          "name": "amount",
          "type": "uint256"
        }
      ],
      "name": "transfer",
      "outputs": [
        {
          "internalType": "bool",
          "name": "",
          "type": "bool"
        }
      ],
      "stateMutability": "nonpayable",
      "type": "function"
    },
    {
      "inputs": [
        {
          "internalType": "address",
          "name": "from",
          "type": "address"
        },
        {
          "internalType": "address",
          "name": "to",
          "type": "address"
        },
        {
          "internalType": "uint256",
          "name": "amount",
          "type": "uint256"
        }
      ],
      "name": "transferFrom",
      "outputs": [
        {
          "internalType": "bool",
          "name": "",
          "type": "bool"
        }
      ],
      "stateMutability": "nonpayable",
      "type": "function"
    }
  ],
  "bytecode": "0x60806040523480156200001157600080fd5b5060405162000acf38038062000acf833981016040819052620000349162000134565b600062000042848262000248565b50600162000051838262000248565b506002805460ff191660ff9290921691909117905550620003149050565b634e487b7160e01b600052604160045260246000fd5b600082601f8301126200009757600080fd5b81516001600160401b0380821115620000b457620000b46200006f565b604051601f8301601f19908116603f01168101908282118183101715620000df57620000df6200006f565b81604052838152602092508683858801011115620000fc57600080fd5b600091505b8382101562000120578582018301518183018401529082019062000101565b600093810190920192909252949350505050565b6000806000606084860312156200014a57600080fd5b83516001600160401b03808211156200016257600080fd5b620001708783880162000085565b945060208601519150808211156200018757600080fd5b50620001968682870162000085565b925050604084015160ff81168114620001ae57600080fd5b809150509250925092565b600181811c90821680620001ce57607f821691505b602082108103620001ef57634e487b7160e01b600052602260045260246000fd5b50919050565b601f8211156200024357600081815260208120601f850160051c810160208610156200021e5750805b601f850160051c820191505b818110156200023f578281556001016200022a565b5050505b505050565b81516001600160401b038111156200026457620002646200006f565b6200027c81620002758454620001b9565b84620001f5565b602080601f831160018114620002b457600084156200029b5750858301515b600019600386901b1c1916600185901b1785556200023f565b600085815260208120601f198616915b82811015620002e557888601518255948401946001909101908401620002c4565b5085821015620003045787850151600019600388901b60f8161c191681555b5050505050600190811b01905550565b6107ab80620003246000396000f3fe608060405234801561001057600080fd5b506004361061009e5760003560e01c806340c10f191161006657806340c10f191461012d57806370a082311461014257806395d89b4114610162578063a9059cbb1461016a578063dd62ed3e1461017d57600080fd5b806306fdde03146100a3578063095ea7b3146100c157806318160ddd146100e457806323b872dd146100fb578063313ce5671461010e575b600080fd5b6100ab6101a8565b6040516100b891906105da565b60405180910390f35b6100d46100cf366004610644565b610236565b60405190151581526020016100b8565b6100ed60035481565b6040519081526020016100b8565b6100d461010936600461066e565b6102a3565b60025461011b9060ff1681565b60405160ff90911681526020016100b8565b61014061013b366004610644565b61045e565b005b6100ed6101503660046106aa565b60046020526000908152604090205481565b6100ab6104e9565b6100d4610178366004610644565b6104f6565b6100ed61018b3660046106cc565b600560209081526000928352604080842090915290825290205481565b600080546101b5906106ff565b80601f01602080910402602001604051908101604052809291908181526020018280546101e1906106ff565b801561022e5780601f106102035761010080835404028352916020019161022e565b820191906000526020600020905b81548152906001019060200180831161021157829003601f168201915b505050505081565b3360008181526005602090815260408083206001600160a01b038716808552925280832085905551919290917f8c5be1e5ebec7d5bd14f71427d1e84f3dd0314c0f7b2291e5b200ac8c7c3b925906102919086815260200190565b60405180910390a35060015b92915050565b6001600160a01b0383166000908152600460205260408120548211156103075760405162461bcd60e51b8152602060048201526014602482015273496e73756666696369656e742062616c616e636560601b60448201526064015b60405180910390fd5b6001600160a01b03841660009081526005602090815260408083203384529091529020548211156103735760405162461bcd60e51b8152602060048201526016602482015275496e73756666696369656e7420616c6c6f77616e636560501b60448201526064016102fe565b6001600160a01b0384166000908152600560209081526040808320338452909152812080548492906103a690849061074f565b90915550506001600160a01b038416600090815260046020526040812080548492906103d390849061074f565b90915550506001600160a01b03831660009081526004602052604081208054849290610400908490610762565b92505081905550826001600160a01b0316846001600160a01b03167fddf252ad1be2c89b69c2b068fc378daa952ba7f163c4a11628f55a4df523b3ef8460405161044c91815260200190565b60405180910390a35060019392505050565b6001600160a01b03821660009081526004602052604081208054839290610486908490610762565b92505081905550806003600082825461049f9190610762565b90915550506040518181526001600160a01b038316906000907fddf252ad1be2c89b69c2b068fc378daa952ba7f163c4a11628f55a4df523b3ef9060200160405180910390a35050565b600180546101b5906106ff565b3360009081526004602052604081205482111561054c5760405162461bcd60e51b8152602060048201526014602482015273496e73756666696369656e742062616c616e636560601b60448201526064016102fe565b336000908152600460205260408120805484929061056b90849061074f565b90915550506001600160a01b03831660009081526004602052604081208054849290610598908490610762565b90915550506040518281526001600160a01b0384169033907fddf252ad1be2c89b69c2b068fc378daa952ba7f163c4a11628f55a4df523b3ef90602001610291565b600060208083528351808285015260005b81811015610607578581018301518582016040015282016105eb565b506000604082860101526040601f19601f8301168501019250505092915050565b80356001600160a01b038116811461063f57600080fd5b919050565b6000806040838503121561065757600080fd5b61066083610628565b946020939093013593505050565b60008060006060848603121561068357600080fd5b61068c84610628565b925061069a60208501610628565b9150604084013590509250925092565b6000602082840312156106bc57600080fd5b6106c582610628565b9392505050565b600080604083850312156106df57600080fd5b6106e883610628565b91506106f660208401610628565b90509250929050565b600181811c9082168061071357607f821691505b60208210810361073357634e487b7160e01b600052602260045260246000fd5b50919050565b634e487b7160e01b600052601160045260246000fd5b8181038181111561029d5761029d610739565b8082018082111561029d5761029d61073956fea26469706673582212203be03dd95cbe5e2e1394ff68761993ea9a9f5652783cf451b9693f16b3dbb3a564736f6c63430008140033",
  "linkReferences": {},
  "deployedLinkReferences": {}
}